{
  "contractName": "DigitalEuro",
  "abi": [
    {
      "inputs": [
        {
          "internalType": "string",
          "name": "iban",
          "type": "string"
        }
      ],
      "payable": false,
      "stateMutability": "nonpayable",
      "type": "constructor"
    },
    {
      "anonymous": false,
      "inputs": [],
      "name": "AccountCreated",
      "type": "event"
    },
    {
      "anonymous": false,
      "inputs": [
        {
          "indexed": true,
          "internalType": "address",
          "name": "_owner",
          "type": "address"
        },
        {
          "indexed": true,
          "internalType": "address",
          "name": "_spender",
          "type": "address"
        },
        {
          "indexed": false,
          "internalType": "uint256",
          "name": "_value",
          "type": "uint256"
        }
      ],
      "name": "Approval",
      "type": "event"
    },
    {
      "anonymous": false,
      "inputs": [
        {
          "indexed": true,
          "internalType": "address",
          "name": "_from",
          "type": "address"
        },
        {
          "indexed": true,
          "internalType": "address",
          "name": "_to",
          "type": "address"
        },
        {
          "indexed": false,
          "internalType": "uint256",
          "name": "_value",
          "type": "uint256"
        }
      ],
      "name": "Transfer",
      "type": "event"
    },
    {
      "constant": true,
      "inputs": [
        {
          "internalType": "address",
          "name": "",
          "type": "address"
        }
      ],
      "name": "accounts",
      "outputs": [
        {
          "internalType": "string",
          "name": "iban",
          "type": "string"
        },
        {
          "internalType": "uint256",
          "name": "transfer_counter",
          "type": "uint256"
        }
      ],
      "payable": false,
      "stateMutability": "view",
      "type": "function"
    },
    {
      "constant": true,
      "inputs": [
        {
          "internalType": "address",
          "name": "",
          "type": "address"
        },
        {
          "internalType": "address",
          "name": "",
          "type": "address"
        }
      ],
      "name": "allowed",
      "outputs": [
        {
          "internalType": "uint256",
          "name": "",
          "type": "uint256"
        }
      ],
      "payable": false,
      "stateMutability": "view",
      "type": "function"
    },
    {
      "constant": true,
      "inputs": [
        {
          "internalType": "address",
          "name": "",
          "type": "address"
        }
      ],
      "name": "balances",
      "outputs": [
        {
          "internalType": "uint256",
          "name": "",
          "type": "uint256"
        }
      ],
      "payable": false,
      "stateMutability": "view",
      "type": "function"
    },
    {
      "constant": true,
      "inputs": [],
      "name": "decimals",
      "outputs": [
        {
          "internalType": "uint8",
          "name": "",
          "type": "uint8"
        }
      ],
      "payable": false,
      "stateMutability": "view",
      "type": "function"
    },
    {
      "constant": true,
      "inputs": [],
      "name": "name",
      "outputs": [
        {
          "internalType": "string",
          "name": "",
          "type": "string"
        }
      ],
      "payable": false,
      "stateMutability": "view",
      "type": "function"
    },
    {
      "constant": true,
      "inputs": [],
      "name": "symbol",
      "outputs": [
        {
          "internalType": "string",
          "name": "",
          "type": "string"
        }
      ],
      "payable": false,
      "stateMutability": "view",
      "type": "function"
    },
    {
      "constant": true,
      "inputs": [],
      "name": "totalSupply",
      "outputs": [
        {
          "internalType": "uint256",
          "name": "",
          "type": "uint256"
        }
      ],
      "payable": false,
      "stateMutability": "view",
      "type": "function"
    },
    {
      "constant": false,
      "inputs": [
        {
          "internalType": "bytes32",
          "name": "myid",
          "type": "bytes32"
        },
        {
          "internalType": "string",
          "name": "result",
          "type": "string"
        }
      ],
      "name": "__callback",
      "outputs": [],
      "payable": false,
      "stateMutability": "nonpayable",
      "type": "function"
    },
    {
      "constant": false,
      "inputs": [
        {
          "internalType": "bytes32",
          "name": "_myid",
          "type": "bytes32"
        },
        {
          "internalType": "string",
          "name": "_result",
          "type": "string"
        },
        {
          "internalType": "bytes",
          "name": "_proof",
          "type": "bytes"
        }
      ],
      "name": "__callback",
      "outputs": [],
      "payable": false,
      "stateMutability": "nonpayable",
      "type": "function"
    },
    {
      "constant": false,
      "inputs": [
        {
          "internalType": "string",
          "name": "iban",
          "type": "string"
        }
      ],
      "name": "createAccount",
      "outputs": [],
      "payable": false,
      "stateMutability": "nonpayable",
      "type": "function"
    },
    {
      "constant": false,
      "inputs": [
        {
          "internalType": "uint256",
          "name": "_value",
          "type": "uint256"
        }
      ],
      "name": "issueCoins",
      "outputs": [],
      "payable": false,
      "stateMutability": "nonpayable",
      "type": "function"
    },
    {
      "constant": false,
      "inputs": [
        {
          "internalType": "uint256",
          "name": "_value",
          "type": "uint256"
        }
      ],
      "name": "redeemCoins",
      "outputs": [],
      "payable": false,
      "stateMutability": "nonpayable",
      "type": "function"
    },
    {
      "constant": false,
      "inputs": [
        {
          "internalType": "address",
          "name": "_receiver_address",
          "type": "address"
        },
        {
          "internalType": "uint256",
          "name": "_value",
          "type": "uint256"
        },
        {
          "internalType": "string",
          "name": "_reason",
          "type": "string"
        }
      ],
      "name": "transferCoins",
      "outputs": [],
      "payable": false,
      "stateMutability": "nonpayable",
      "type": "function"
    },
    {
      "constant": false,
      "inputs": [
        {
          "internalType": "address",
          "name": "_receiver",
          "type": "address"
        },
        {
          "internalType": "uint256",
          "name": "_value",
          "type": "uint256"
        },
        {
          "internalType": "string",
          "name": "_reason",
          "type": "string"
        }
      ],
      "name": "purchase",
      "outputs": [],
      "payable": false,
      "stateMutability": "nonpayable",
      "type": "function"
    },
    {
      "constant": false,
      "inputs": [
        {
          "internalType": "address",
          "name": "_to",
          "type": "address"
        },
        {
          "internalType": "uint256",
          "name": "_value",
          "type": "uint256"
        }
      ],
      "name": "transfer",
      "outputs": [
        {
          "internalType": "bool",
          "name": "success",
          "type": "bool"
        }
      ],
      "payable": false,
      "stateMutability": "nonpayable",
      "type": "function"
    },
    {
      "constant": false,
      "inputs": [
        {
          "internalType": "address",
          "name": "_from",
          "type": "address"
        },
        {
          "internalType": "address",
          "name": "_to",
          "type": "address"
        },
        {
          "internalType": "uint256",
          "name": "_value",
          "type": "uint256"
        }
      ],
      "name": "transferFrom",
      "outputs": [
        {
          "internalType": "bool",
          "name": "success",
          "type": "bool"
        }
      ],
      "payable": false,
      "stateMutability": "nonpayable",
      "type": "function"
    },
    {
      "constant": true,
      "inputs": [
        {
          "internalType": "address",
          "name": "_owner",
          "type": "address"
        }
      ],
      "name": "balanceOf",
      "outputs": [
        {
          "internalType": "uint256",
          "name": "balance",
          "type": "uint256"
        }
      ],
      "payable": false,
      "stateMutability": "view",
      "type": "function"
    },
    {
      "constant": false,
      "inputs": [
        {
          "internalType": "address",
          "name": "_spender",
          "type": "address"
        },
        {
          "internalType": "uint256",
          "name": "_value",
          "type": "uint256"
        }
      ],
      "name": "approve",
      "outputs": [
        {
          "internalType": "bool",
          "name": "success",
          "type": "bool"
        }
      ],
      "payable": false,
      "stateMutability": "nonpayable",
      "type": "function"
    },
    {
      "constant": true,
      "inputs": [
        {
          "internalType": "address",
          "name": "_owner",
          "type": "address"
        },
        {
          "internalType": "address",
          "name": "_spender",
          "type": "address"
        }
      ],
      "name": "allowance",
      "outputs": [
        {
          "internalType": "uint256",
          "name": "remaining",
          "type": "uint256"
        }
      ],
      "payable": false,
      "stateMutability": "view",
      "type": "function"
    }
  ],
  "bytecode": "0x60806040523480156200001157600080fd5b506040516200471c3803806200471c833981810160405260208110156200003757600080fd5b81019080805160405193929190846401000000008211156200005857600080fd5b838201915060208201858111156200006f57600080fd5b82518660018202830111640100000000821117156200008d57600080fd5b8083526020830192505050908051906020019080838360005b83811015620000c3578082015181840152602081019050620000a6565b50505050905090810190601f168015620000f15780820380516001836020036101000a031916815260200191505b506040525050506000600960003373ffffffffffffffffffffffffffffffffffffffff1673ffffffffffffffffffffffffffffffffffffffff16815260200190815260200160002081905550600080819055506040518060400160405280600b81526020017f4469676974616c4575726f000000000000000000000000000000000000000000815250600b908051906020019062000191929190620002bf565b506002600c60006101000a81548160ff021916908360ff1602179055506040518060400160405280600681526020017f442d4575726f0000000000000000000000000000000000000000000000000000815250600d9080519060200190620001fb929190620002bf565b5033600660006101000a81548173ffffffffffffffffffffffffffffffffffffffff021916908373ffffffffffffffffffffffffffffffffffffffff1602179055508060076000600660009054906101000a900473ffffffffffffffffffffffffffffffffffffffff1673ffffffffffffffffffffffffffffffffffffffff1673ffffffffffffffffffffffffffffffffffffffff1681526020019081526020016000206000019080519060200190620002b7929190620002bf565b50506200036e565b828054600181600116156101000203166002900490600052602060002090601f016020900481019282601f106200030257805160ff191683800117855562000333565b8280016001018555821562000333579182015b828111156200033257825182559160200191906001019062000315565b5b50905062000342919062000346565b5090565b6200036b91905b80821115620003675760008160009055506001016200034d565b5090565b90565b61439e806200037e6000396000f3fe608060405234801561001057600080fd5b50600436106101215760003560e01c806338bbfa50116100ad57806375e57a071161007157806375e57a07146108b257806395d89b41146108e0578063a9059cbb14610963578063dd62ed3e146109c9578063e9f3525d14610a4157610121565b806338bbfa501461059457806339eb283c146106f05780635c6581651461071e5780635e5c06e21461079657806370a082311461085a57610121565b806323b872dd116100f457806323b872dd1461031257806327dc297e1461039857806327e235e31461045d578063298daf5b146104b5578063313ce5671461057057610121565b8063049a58b51461012657806306fdde031461020b578063095ea7b31461028e57806318160ddd146102f4575b600080fd5b6102096004803603606081101561013c57600080fd5b81019080803573ffffffffffffffffffffffffffffffffffffffff169060200190929190803590602001909291908035906020019064010000000081111561018357600080fd5b82018360208201111561019557600080fd5b803590602001918460018302840111640100000000831117156101b757600080fd5b91908080601f016020809104026020016040519081016040528093929190818152602001838380828437600081840152601f19601f820116905080830192505050505050509192919290505050610b26565b005b610213610b44565b6040518080602001828103825283818151815260200191508051906020019080838360005b83811015610253578082015181840152602081019050610238565b50505050905090810190601f1680156102805780820380516001836020036101000a031916815260200191505b509250505060405180910390f35b6102da600480360360408110156102a457600080fd5b81019080803573ffffffffffffffffffffffffffffffffffffffff16906020019092919080359060200190929190505050610be2565b604051808215151515815260200191505060405180910390f35b6102fc610cd4565b6040518082815260200191505060405180910390f35b61037e6004803603606081101561032857600080fd5b81019080803573ffffffffffffffffffffffffffffffffffffffff169060200190929190803573ffffffffffffffffffffffffffffffffffffffff16906020019092919080359060200190929190505050610cda565b604051808215151515815260200191505060405180910390f35b61045b600480360360408110156103ae57600080fd5b8101908080359060200190929190803590602001906401000000008111156103d557600080fd5b8201836020820111156103e757600080fd5b8035906020019184600183028401116401000000008311171561040957600080fd5b91908080601f016020809104026020016040519081016040528093929190818152602001838380828437600081840152601f19601f820116905080830192505050505050509192919290505050610f72565b005b61049f6004803603602081101561047357600080fd5b81019080803573ffffffffffffffffffffffffffffffffffffffff1690602001909291905050506113a5565b6040518082815260200191505060405180910390f35b61056e600480360360208110156104cb57600080fd5b81019080803590602001906401000000008111156104e857600080fd5b8201836020820111156104fa57600080fd5b8035906020019184600183028401116401000000008311171561051c57600080fd5b91908080601f016020809104026020016040519081016040528093929190818152602001838380828437600081840152601f19601f8201169050808301925050505050505091929192905050506113bd565b005b61057861161a565b604051808260ff1660ff16815260200191505060405180910390f35b6106ee600480360360608110156105aa57600080fd5b8101908080359060200190929190803590602001906401000000008111156105d157600080fd5b8201836020820111156105e357600080fd5b8035906020019184600183028401116401000000008311171561060557600080fd5b91908080601f016020809104026020016040519081016040528093929190818152602001838380828437600081840152601f19601f8201169050808301925050505050505091929192908035906020019064010000000081111561066857600080fd5b82018360208201111561067a57600080fd5b8035906020019184600183028401116401000000008311171561069c57600080fd5b91908080601f016020809104026020016040519081016040528093929190818152602001838380828437600081840152601f19601f82011690508083019250505050505050919291929050505061162d565b005b61071c6004803603602081101561070657600080fd5b8101908080359060200190929190505050611650565b005b6107806004803603604081101561073457600080fd5b81019080803573ffffffffffffffffffffffffffffffffffffffff169060200190929190803573ffffffffffffffffffffffffffffffffffffffff169060200190929190505050611c00565b6040518082815260200191505060405180910390f35b6107d8600480360360208110156107ac57600080fd5b81019080803573ffffffffffffffffffffffffffffffffffffffff169060200190929190505050611c25565b6040518080602001838152602001828103825284818151815260200191508051906020019080838360005b8381101561081e578082015181840152602081019050610803565b50505050905090810190601f16801561084b5780820380516001836020036101000a031916815260200191505b50935050505060405180910390f35b61089c6004803603602081101561087057600080fd5b81019080803573ffffffffffffffffffffffffffffffffffffffff169060200190929190505050611ce1565b6040518082815260200191505060405180910390f35b6108de600480360360208110156108c857600080fd5b8101908080359060200190929190505050611d2a565b005b6108e8612226565b6040518080602001828103825283818151815260200191508051906020019080838360005b8381101561092857808201518184015260208101905061090d565b50505050905090810190601f1680156109555780820380516001836020036101000a031916815260200191505b509250505060405180910390f35b6109af6004803603604081101561097957600080fd5b81019080803573ffffffffffffffffffffffffffffffffffffffff169060200190929190803590602001909291905050506122c4565b604051808215151515815260200191505060405180910390f35b610a2b600480360360408110156109df57600080fd5b81019080803573ffffffffffffffffffffffffffffffffffffffff169060200190929190803573ffffffffffffffffffffffffffffffffffffffff16906020019092919050505061241b565b6040518082815260200191505060405180910390f35b610b2460048036036060811015610a5757600080fd5b81019080803573ffffffffffffffffffffffffffffffffffffffff1690602001909291908035906020019092919080359060200190640100000000811115610a9e57600080fd5b820183602082011115610ab057600080fd5b80359060200191846001830284011164010000000083111715610ad257600080fd5b91908080601f016020809104026020016040519081016040528093929190818152602001838380828437600081840152601f19601f8201169050808301925050505050505091929192905050506124a2565b005b610b3083836122c4565b50610b3f338484600285612a38565b505050565b600b8054600181600116156101000203166002900480601f016020809104026020016040519081016040528092919081815260200182805460018160011615610100020316600290048015610bda5780601f10610baf57610100808354040283529160200191610bda565b820191906000526020600020905b815481529060010190602001808311610bbd57829003601f168201915b505050505081565b600081600a60003373ffffffffffffffffffffffffffffffffffffffff1673ffffffffffffffffffffffffffffffffffffffff16815260200190815260200160002060008573ffffffffffffffffffffffffffffffffffffffff1673ffffffffffffffffffffffffffffffffffffffff168152602001908152602001600020819055508273ffffffffffffffffffffffffffffffffffffffff163373ffffffffffffffffffffffffffffffffffffffff167f8c5be1e5ebec7d5bd14f71427d1e84f3dd0314c0f7b2291e5b200ac8c7c3b925846040518082815260200191505060405180910390a36001905092915050565b60005481565b600080600a60008673ffffffffffffffffffffffffffffffffffffffff1673ffffffffffffffffffffffffffffffffffffffff16815260200190815260200160002060003373ffffffffffffffffffffffffffffffffffffffff1673ffffffffffffffffffffffffffffffffffffffff16815260200190815260200160002054905082600960008773ffffffffffffffffffffffffffffffffffffffff1673ffffffffffffffffffffffffffffffffffffffff1681526020019081526020016000205410158015610dab5750828110155b610db457600080fd5b82600960008673ffffffffffffffffffffffffffffffffffffffff1673ffffffffffffffffffffffffffffffffffffffff1681526020019081526020016000206000828254019250508190555082600960008773ffffffffffffffffffffffffffffffffffffffff1673ffffffffffffffffffffffffffffffffffffffff168152602001908152602001600020600082825403925050819055507fffffffffffffffffffffffffffffffffffffffffffffffffffffffffffffffff811015610f015782600a60008773ffffffffffffffffffffffffffffffffffffffff1673ffffffffffffffffffffffffffffffffffffffff16815260200190815260200160002060003373ffffffffffffffffffffffffffffffffffffffff1673ffffffffffffffffffffffffffffffffffffffff168152602001908152602001600020600082825403925050819055505b8373ffffffffffffffffffffffffffffffffffffffff168573ffffffffffffffffffffffffffffffffffffffff167fddf252ad1be2c89b69c2b068fc378daa952ba7f163c4a11628f55a4df523b3ef856040518082815260200191505060405180910390a360019150509392505050565b610f7a612dbe565b73ffffffffffffffffffffffffffffffffffffffff163373ffffffffffffffffffffffffffffffffffffffff1614610fb157600080fd5b60006003811115610fbe57fe5b6008600084815260200190815260200160002060000160009054906101000a900460ff166003811115610fed57fe5b14156110e6576110e16008600084815260200190815260200160002060010160009054906101000a900473ffffffffffffffffffffffffffffffffffffffff16600860008581526020019081526020016000206003018054600181600116156101000203166002900480601f0160208091040260200160405190810160405280929190818152602001828054600181600116156101000203166002900480156110d75780601f106110ac576101008083540402835291602001916110d7565b820191906000526020600020905b8154815290600101906020018083116110ba57829003601f168201915b50505050506130de565b6113a1565b600160038111156110f357fe5b6008600084815260200190815260200160002060000160009054906101000a900460ff16600381111561112257fe5b14156111835761117e6008600084815260200190815260200160002060010160009054906101000a900473ffffffffffffffffffffffffffffffffffffffff16600860008581526020019081526020016000206002015461317e565b6113a0565b6002600381111561119057fe5b6008600084815260200190815260200160002060000160009054906101000a900460ff1660038111156111bf57fe5b14156112205761121b6008600084815260200190815260200160002060000160019054906101000a900473ffffffffffffffffffffffffffffffffffffffff16600860008581526020019081526020016000206002015461321d565b61139f565b60038081111561122c57fe5b6008600084815260200190815260200160002060000160009054906101000a900460ff16600381111561125b57fe5b141561139e5761139d6008600084815260200190815260200160002060000160019054906101000a900473ffffffffffffffffffffffffffffffffffffffff166008600085815260200190815260200160002060010160009054906101000a900473ffffffffffffffffffffffffffffffffffffffff166008600086815260200190815260200160002060020154600860008781526020019081526020016000206003018054600181600116156101000203166002900480601f0160208091040260200160405190810160405280929190818152602001828054600181600116156101000203166002900480156113935780601f1061136857610100808354040283529160200191611393565b820191906000526020600020905b81548152906001019060200180831161137657829003601f168201915b50505050506132bc565b5b5b5b5b5050565b60096020528060005260406000206000915090505481565b6113fc816040518060400160405280600181526020017f2900000000000000000000000000000000000000000000000000000000000000815250613378565b905060606114226040518060800160405280605281526020016143186052913983613378565b90507fc948187b260bbc72ea272c3455658982a957190abd439921077c5756e0cb82a160405160405180910390a160006114916040518060400160405280600381526020017f55524c000000000000000000000000000000000000000000000000000000000081525083613440565b905061149b614044565b6040518060a00160405280600060038111156114b357fe5b8152602001600660009054906101000a900473ffffffffffffffffffffffffffffffffffffffff1673ffffffffffffffffffffffffffffffffffffffff1681526020013373ffffffffffffffffffffffffffffffffffffffff16815260200160008152602001858152509050806008600084815260200190815260200160002060008201518160000160006101000a81548160ff0219169083600381111561155757fe5b021790555060208201518160000160016101000a81548173ffffffffffffffffffffffffffffffffffffffff021916908373ffffffffffffffffffffffffffffffffffffffff16021790555060408201518160010160006101000a81548173ffffffffffffffffffffffffffffffffffffffff021916908373ffffffffffffffffffffffffffffffffffffffff1602179055506060820151816002015560808201518160030190805190602001906116109291906140aa565b5090505050505050565b600c60009054906101000a900460ff1681565b6000801b600460008060001b815260200190815260200160002081905550505050565b600960003373ffffffffffffffffffffffffffffffffffffffff1673ffffffffffffffffffffffffffffffffffffffff168152602001908152602001600020548110611704576040517f08c379a00000000000000000000000000000000000000000000000000000000081526004018080602001828103825260108152602001807f4e6f7420656e6f75676820636f696e730000000000000000000000000000000081525060200191505060405180910390fd5b60606040518060800160405280604b81526020016142cd604b91399050611760816040518060400160405280600781526020017f2676616c75653d00000000000000000000000000000000000000000000000000815250613378565b90506117748161176f8461398a565b613378565b90506117b5816040518060400160405280600d81526020017f2673656e6465725f6962616e3d00000000000000000000000000000000000000815250613378565b90506118bd8160076000600660009054906101000a900473ffffffffffffffffffffffffffffffffffffffff1673ffffffffffffffffffffffffffffffffffffffff1673ffffffffffffffffffffffffffffffffffffffff1681526020019081526020016000206000018054600181600116156101000203166002900480601f0160208091040260200160405190810160405280929190818152602001828054600181600116156101000203166002900480156118b35780601f10611888576101008083540402835291602001916118b3565b820191906000526020600020905b81548152906001019060200180831161189657829003601f168201915b5050505050613378565b90506118fe816040518060400160405280600f81526020017f2672656365697665725f6962616e3d0000000000000000000000000000000000815250613378565b90506119e481600760003373ffffffffffffffffffffffffffffffffffffffff1673ffffffffffffffffffffffffffffffffffffffff1681526020019081526020016000206000018054600181600116156101000203166002900480601f0160208091040260200160405190810160405280929190818152602001828054600181600116156101000203166002900480156119da5780601f106119af576101008083540402835291602001916119da565b820191906000526020600020905b8154815290600101906020018083116119bd57829003601f168201915b5050505050613378565b9050611a25816040518060400160405280600181526020017f2900000000000000000000000000000000000000000000000000000000000000815250613378565b90506000611a686040518060400160405280600381526020017f55524c000000000000000000000000000000000000000000000000000000000081525083613440565b9050611a72614044565b6040518060a0016040528060026003811115611a8a57fe5b8152602001600660009054906101000a900473ffffffffffffffffffffffffffffffffffffffff1673ffffffffffffffffffffffffffffffffffffffff1681526020013373ffffffffffffffffffffffffffffffffffffffff16815260200160008152602001604051806020016040528060008152508152509050806008600084815260200190815260200160002060008201518160000160006101000a81548160ff02191690836003811115611b3d57fe5b021790555060208201518160000160016101000a81548173ffffffffffffffffffffffffffffffffffffffff021916908373ffffffffffffffffffffffffffffffffffffffff16021790555060408201518160010160006101000a81548173ffffffffffffffffffffffffffffffffffffffff021916908373ffffffffffffffffffffffffffffffffffffffff160217905550606082015181600201556080820151816003019080519060200190611bf69291906140aa565b5090505050505050565b600a602052816000526040600020602052806000526040600020600091509150505481565b6007602052806000526040600020600091509050806000018054600181600116156101000203166002900480601f016020809104026020016040519081016040528092919081815260200182805460018160011615610100020316600290048015611cd15780601f10611ca657610100808354040283529160200191611cd1565b820191906000526020600020905b815481529060010190602001808311611cb457829003601f168201915b5050505050908060020154905082565b6000600960008373ffffffffffffffffffffffffffffffffffffffff1673ffffffffffffffffffffffffffffffffffffffff168152602001908152602001600020549050919050565b60606040518060800160405280604a8152602001614236604a91399050611d86816040518060400160405280600781526020017f2676616c75653d00000000000000000000000000000000000000000000000000815250613378565b9050611d9a81611d958461398a565b613378565b9050611ddb816040518060400160405280600d81526020017f2673656e6465725f6962616e3d00000000000000000000000000000000000000815250613378565b9050611ec181600760003373ffffffffffffffffffffffffffffffffffffffff1673ffffffffffffffffffffffffffffffffffffffff1681526020019081526020016000206000018054600181600116156101000203166002900480601f016020809104026020016040519081016040528092919081815260200182805460018160011615610100020316600290048015611eb75780601f10611e8c57610100808354040283529160200191611eb7565b820191906000526020600020905b815481529060010190602001808311611e9a57829003601f168201915b5050505050613378565b9050611f02816040518060400160405280600f81526020017f2672656365697665725f6962616e3d0000000000000000000000000000000000815250613378565b905061200a8160076000600660009054906101000a900473ffffffffffffffffffffffffffffffffffffffff1673ffffffffffffffffffffffffffffffffffffffff1673ffffffffffffffffffffffffffffffffffffffff1681526020019081526020016000206000018054600181600116156101000203166002900480601f0160208091040260200160405190810160405280929190818152602001828054600181600116156101000203166002900480156120005780601f10611fd557610100808354040283529160200191612000565b820191906000526020600020905b815481529060010190602001808311611fe357829003601f168201915b5050505050613378565b905061204b816040518060400160405280600181526020017f2900000000000000000000000000000000000000000000000000000000000000815250613378565b9050600061208e6040518060400160405280600381526020017f55524c000000000000000000000000000000000000000000000000000000000081525083613440565b9050612098614044565b6040518060a00160405280600160038111156120b057fe5b8152602001600660009054906101000a900473ffffffffffffffffffffffffffffffffffffffff1673ffffffffffffffffffffffffffffffffffffffff1681526020013373ffffffffffffffffffffffffffffffffffffffff16815260200160008152602001604051806020016040528060008152508152509050806008600084815260200190815260200160002060008201518160000160006101000a81548160ff0219169083600381111561216357fe5b021790555060208201518160000160016101000a81548173ffffffffffffffffffffffffffffffffffffffff021916908373ffffffffffffffffffffffffffffffffffffffff16021790555060408201518160010160006101000a81548173ffffffffffffffffffffffffffffffffffffffff021916908373ffffffffffffffffffffffffffffffffffffffff16021790555060608201518160020155608082015181600301908051906020019061221c9291906140aa565b5090505050505050565b600d8054600181600116156101000203166002900480601f0160208091040260200160405190810160405280929190818152602001828054600181600116156101000203166002900480156122bc5780601f10612291576101008083540402835291602001916122bc565b820191906000526020600020905b81548152906001019060200180831161229f57829003601f168201915b505050505081565b600081600960003373ffffffffffffffffffffffffffffffffffffffff1673ffffffffffffffffffffffffffffffffffffffff16815260200190815260200160002054101561231257600080fd5b81600960003373ffffffffffffffffffffffffffffffffffffffff1673ffffffffffffffffffffffffffffffffffffffff1681526020019081526020016000206000828254039250508190555081600960008573ffffffffffffffffffffffffffffffffffffffff1673ffffffffffffffffffffffffffffffffffffffff168152602001908152602001600020600082825401925050819055508273ffffffffffffffffffffffffffffffffffffffff163373ffffffffffffffffffffffffffffffffffffffff167fddf252ad1be2c89b69c2b068fc378daa952ba7f163c4a11628f55a4df523b3ef846040518082815260200191505060405180910390a36001905092915050565b6000600a60008473ffffffffffffffffffffffffffffffffffffffff1673ffffffffffffffffffffffffffffffffffffffff16815260200190815260200160002060008373ffffffffffffffffffffffffffffffffffffffff1673ffffffffffffffffffffffffffffffffffffffff16815260200190815260200160002054905092915050565b600960003373ffffffffffffffffffffffffffffffffffffffff1673ffffffffffffffffffffffffffffffffffffffff168152602001908152602001600020548210612556576040517f08c379a00000000000000000000000000000000000000000000000000000000081526004018080602001828103825260108152602001807f4e6f7420656e6f75676820636f696e730000000000000000000000000000000081525060200191505060405180910390fd5b60606040518060800160405280604d8152602001614280604d913990506125b2816040518060400160405280600781526020017f2676616c75653d00000000000000000000000000000000000000000000000000815250613378565b90506125f3816040518060400160405280600d81526020017f2673656e6465725f6962616e3d00000000000000000000000000000000000000815250613378565b90506126d981600760003373ffffffffffffffffffffffffffffffffffffffff1673ffffffffffffffffffffffffffffffffffffffff1681526020019081526020016000206000018054600181600116156101000203166002900480601f0160208091040260200160405190810160405280929190818152602001828054600181600116156101000203166002900480156126cf5780601f106126a4576101008083540402835291602001916126cf565b820191906000526020600020905b8154815290600101906020018083116126b257829003601f168201915b5050505050613378565b905061271a816040518060400160405280600f81526020017f2672656365697665725f6962616e3d0000000000000000000000000000000000815250613378565b905061280081600760008773ffffffffffffffffffffffffffffffffffffffff1673ffffffffffffffffffffffffffffffffffffffff1681526020019081526020016000206000018054600181600116156101000203166002900480601f0160208091040260200160405190810160405280929190818152602001828054600181600116156101000203166002900480156127f65780601f106127cb576101008083540402835291602001916127f6565b820191906000526020600020905b8154815290600101906020018083116127d957829003601f168201915b5050505050613378565b9050612841816040518060400160405280600881526020017f26726561736f6e3d000000000000000000000000000000000000000000000000815250613378565b905061284d8183613378565b905061288e816040518060400160405280600181526020017f2900000000000000000000000000000000000000000000000000000000000000815250613378565b905060006128d16040518060400160405280600381526020017f55524c000000000000000000000000000000000000000000000000000000000081525083613440565b90506128db614044565b6040518060a001604052806003808111156128f257fe5b81526020013373ffffffffffffffffffffffffffffffffffffffff1681526020018773ffffffffffffffffffffffffffffffffffffffff168152602001868152602001858152509050806008600084815260200190815260200160002060008201518160000160006101000a81548160ff0219169083600381111561297357fe5b021790555060208201518160000160016101000a81548173ffffffffffffffffffffffffffffffffffffffff021916908373ffffffffffffffffffffffffffffffffffffffff16021790555060408201518160010160006101000a81548173ffffffffffffffffffffffffffffffffffffffff021916908373ffffffffffffffffffffffffffffffffffffffff160217905550606082015181600201556080820151816003019080519060200190612a2c9291906140aa565b50905050505050505050565b6000600760008773ffffffffffffffffffffffffffffffffffffffff1673ffffffffffffffffffffffffffffffffffffffff16815260200190815260200160002060020160008154809291906001019190505590506000600760008773ffffffffffffffffffffffffffffffffffffffff1673ffffffffffffffffffffffffffffffffffffffff1681526020019081526020016000206002016000815480929190600101919050559050612aea61412a565b6040518060a001604052808973ffffffffffffffffffffffffffffffffffffffff1681526020018873ffffffffffffffffffffffffffffffffffffffff168152602001878152602001866003811115612b3f57fe5b815260200185815250905080600760008a73ffffffffffffffffffffffffffffffffffffffff1673ffffffffffffffffffffffffffffffffffffffff168152602001908152602001600020600101600085815260200190815260200160002060008201518160000160006101000a81548173ffffffffffffffffffffffffffffffffffffffff021916908373ffffffffffffffffffffffffffffffffffffffff16021790555060208201518160010160006101000a81548173ffffffffffffffffffffffffffffffffffffffff021916908373ffffffffffffffffffffffffffffffffffffffff1602179055506040820151816002015560608201518160030160006101000a81548160ff02191690836003811115612c5a57fe5b02179055506080820151816004019080519060200190612c7b9291906140aa565b5090505080600760008973ffffffffffffffffffffffffffffffffffffffff1673ffffffffffffffffffffffffffffffffffffffff168152602001908152602001600020600101600084815260200190815260200160002060008201518160000160006101000a81548173ffffffffffffffffffffffffffffffffffffffff021916908373ffffffffffffffffffffffffffffffffffffffff16021790555060208201518160010160006101000a81548173ffffffffffffffffffffffffffffffffffffffff021916908373ffffffffffffffffffffffffffffffffffffffff1602179055506040820151816002015560608201518160030160006101000a81548160ff02191690836003811115612d8f57fe5b02179055506080820151816004019080519060200190612db09291906140aa565b509050505050505050505050565b60008073ffffffffffffffffffffffffffffffffffffffff16600260009054906101000a900473ffffffffffffffffffffffffffffffffffffffff1673ffffffffffffffffffffffffffffffffffffffff161480612e4657506000612e44600260009054906101000a900473ffffffffffffffffffffffffffffffffffffffff16613ab7565b145b15612e5757612e556000613ac2565b505b600260009054906101000a900473ffffffffffffffffffffffffffffffffffffffff1673ffffffffffffffffffffffffffffffffffffffff166338cc48316040518163ffffffff1660e01b8152600401602060405180830381600087803b158015612ec157600080fd5b505af1158015612ed5573d6000803e3d6000fd5b505050506040513d6020811015612eeb57600080fd5b810190808051906020019092919050505073ffffffffffffffffffffffffffffffffffffffff16600160009054906101000a900473ffffffffffffffffffffffffffffffffffffffff1673ffffffffffffffffffffffffffffffffffffffff161461303657600260009054906101000a900473ffffffffffffffffffffffffffffffffffffffff1673ffffffffffffffffffffffffffffffffffffffff166338cc48316040518163ffffffff1660e01b8152600401602060405180830381600087803b158015612fba57600080fd5b505af1158015612fce573d6000803e3d6000fd5b505050506040513d6020811015612fe457600080fd5b8101908080519060200190929190505050600160006101000a81548173ffffffffffffffffffffffffffffffffffffffff021916908373ffffffffffffffffffffffffffffffffffffffff1602179055505b600160009054906101000a900473ffffffffffffffffffffffffffffffffffffffff1673ffffffffffffffffffffffffffffffffffffffff1663c281d19e6040518163ffffffff1660e01b815260040160206040518083038186803b15801561309e57600080fd5b505afa1580156130b2573d6000803e3d6000fd5b505050506040513d60208110156130c857600080fd5b8101908080519060200190929190505050905090565b6000600960008473ffffffffffffffffffffffffffffffffffffffff1673ffffffffffffffffffffffffffffffffffffffff1681526020019081526020016000208190555080600760008473ffffffffffffffffffffffffffffffffffffffff1673ffffffffffffffffffffffffffffffffffffffff1681526020019081526020016000206000019080519060200190613179929190614190565b505050565b80600960008473ffffffffffffffffffffffffffffffffffffffff1673ffffffffffffffffffffffffffffffffffffffff16815260200190815260200160002060008282540192505081905550806000808282540192505081905550613219600660009054906101000a900473ffffffffffffffffffffffffffffffffffffffff168383600060405180602001604052806000815250612a38565b5050565b80600960008473ffffffffffffffffffffffffffffffffffffffff1673ffffffffffffffffffffffffffffffffffffffff168152602001908152602001600020600082825403925050819055508060008082825403925050819055506132b882600660009054906101000a900473ffffffffffffffffffffffffffffffffffffffff1683600160405180602001604052806000815250612a38565b5050565b81600960008673ffffffffffffffffffffffffffffffffffffffff1673ffffffffffffffffffffffffffffffffffffffff1681526020019081526020016000206000828254039250508190555081600960008573ffffffffffffffffffffffffffffffffffffffff1673ffffffffffffffffffffffffffffffffffffffff16815260200190815260200160002060008282540192505081905550613364848484600285612a38565b613372848484600385612a38565b50505050565b606082826040516020018083805190602001908083835b602083106133b2578051825260208201915060208101905060208303925061338f565b6001836020036101000a03801982511681845116808217855250505050505090500182805190602001908083835b6020831061340357805182526020820191506020810190506020830392506133e0565b6001836020036101000a03801982511681845116808217855250505050505090500192505050604051602081830303815290604052905092915050565b60008073ffffffffffffffffffffffffffffffffffffffff16600260009054906101000a900473ffffffffffffffffffffffffffffffffffffffff1673ffffffffffffffffffffffffffffffffffffffff1614806134c8575060006134c6600260009054906101000a900473ffffffffffffffffffffffffffffffffffffffff16613ab7565b145b156134d9576134d76000613ac2565b505b600260009054906101000a900473ffffffffffffffffffffffffffffffffffffffff1673ffffffffffffffffffffffffffffffffffffffff166338cc48316040518163ffffffff1660e01b8152600401602060405180830381600087803b15801561354357600080fd5b505af1158015613557573d6000803e3d6000fd5b505050506040513d602081101561356d57600080fd5b810190808051906020019092919050505073ffffffffffffffffffffffffffffffffffffffff16600160009054906101000a900473ffffffffffffffffffffffffffffffffffffffff1673ffffffffffffffffffffffffffffffffffffffff16146136b857600260009054906101000a900473ffffffffffffffffffffffffffffffffffffffff1673ffffffffffffffffffffffffffffffffffffffff166338cc48316040518163ffffffff1660e01b8152600401602060405180830381600087803b15801561363c57600080fd5b505af1158015613650573d6000803e3d6000fd5b505050506040513d602081101561366657600080fd5b8101908080519060200190929190505050600160006101000a81548173ffffffffffffffffffffffffffffffffffffffff021916908373ffffffffffffffffffffffffffffffffffffffff1602179055505b6000600160009054906101000a900473ffffffffffffffffffffffffffffffffffffffff1673ffffffffffffffffffffffffffffffffffffffff1663524f3889856040518263ffffffff1660e01b81526004018080602001828103825283818151815260200191508051906020019080838360005b8381101561374857808201518184015260208101905061372d565b50505050905090810190601f1680156137755780820380516001836020036101000a031916815260200191505b5092505050602060405180830381600087803b15801561379457600080fd5b505af11580156137a8573d6000803e3d6000fd5b505050506040513d60208110156137be57600080fd5b8101908080519060200190929190505050905062030d403a02670de0b6b3a7640000018111156137f4576000801b915050613984565b600160009054906101000a900473ffffffffffffffffffffffffffffffffffffffff1673ffffffffffffffffffffffffffffffffffffffff1663adf59f9982600087876040518563ffffffff1660e01b8152600401808481526020018060200180602001838103835285818151815260200191508051906020019080838360005b83811015613890578082015181840152602081019050613875565b50505050905090810190601f1680156138bd5780820380516001836020036101000a031916815260200191505b50838103825284818151815260200191508051906020019080838360005b838110156138f65780820151818401526020810190506138db565b50505050905090810190601f1680156139235780820380516001836020036101000a031916815260200191505b50955050505050506020604051808303818588803b15801561394457600080fd5b505af1158015613958573d6000803e3d6000fd5b50505050506040513d602081101561396f57600080fd5b81019080805190602001909291905050509150505b92915050565b606060008214156139d2576040518060400160405280600181526020017f30000000000000000000000000000000000000000000000000000000000000008152509050613ab2565b600082905060005b600082146139fc578080600101915050600a82816139f457fe5b0491506139da565b6060816040519080825280601f01601f191660200182016040528015613a315781602001600182028038833980820191505090505b50905060006001830390505b60008614613aaa57600a8681613a4f57fe5b0660300160f81b82828060019003935081518110613a6957fe5b60200101907effffffffffffffffffffffffffffffffffffffffffffffffffffffffffffff1916908160001a905350600a8681613aa257fe5b049550613a3d565b819450505050505b919050565b6000813b9050919050565b6000613acc613ad3565b9050919050565b600080613af3731d3b2638a7cc9f2cb3d298a3da7a90b67e5506ed613ab7565b1115613b9557731d3b2638a7cc9f2cb3d298a3da7a90b67e5506ed600260006101000a81548173ffffffffffffffffffffffffffffffffffffffff021916908373ffffffffffffffffffffffffffffffffffffffff160217905550613b8c6040518060400160405280600b81526020017f6574685f6d61696e6e657400000000000000000000000000000000000000000081525061402a565b60019050614027565b6000613bb473c03a2615d5efaf5f49f60b7bb6583eaec212fdf1613ab7565b1115613c565773c03a2615d5efaf5f49f60b7bb6583eaec212fdf1600260006101000a81548173ffffffffffffffffffffffffffffffffffffffff021916908373ffffffffffffffffffffffffffffffffffffffff160217905550613c4d6040518060400160405280600c81526020017f6574685f726f707374656e33000000000000000000000000000000000000000081525061402a565b60019050614027565b6000613c7573b7a07bcf2ba2f2703b24c0691b5278999c59ac7e613ab7565b1115613d175773b7a07bcf2ba2f2703b24c0691b5278999c59ac7e600260006101000a81548173ffffffffffffffffffffffffffffffffffffffff021916908373ffffffffffffffffffffffffffffffffffffffff160217905550613d0e6040518060400160405280600981526020017f6574685f6b6f76616e000000000000000000000000000000000000000000000081525061402a565b60019050614027565b6000613d3673146500cfd35b22e4a392fe0adc06de1a1368ed48613ab7565b1115613dd85773146500cfd35b22e4a392fe0adc06de1a1368ed48600260006101000a81548173ffffffffffffffffffffffffffffffffffffffff021916908373ffffffffffffffffffffffffffffffffffffffff160217905550613dcf6040518060400160405280600b81526020017f6574685f72696e6b65627900000000000000000000000000000000000000000081525061402a565b60019050614027565b6000613df773a2998efd205fb9d4b4963afb70778d6354ad3a41613ab7565b1115613e995773a2998efd205fb9d4b4963afb70778d6354ad3a41600260006101000a81548173ffffffffffffffffffffffffffffffffffffffff021916908373ffffffffffffffffffffffffffffffffffffffff160217905550613e906040518060400160405280600a81526020017f6574685f676f65726c690000000000000000000000000000000000000000000081525061402a565b60019050614027565b6000613eb8736f485c8bf6fc43ea212e93bbf8ce046c7f1cb475613ab7565b1115613f1c57736f485c8bf6fc43ea212e93bbf8ce046c7f1cb475600260006101000a81548173ffffffffffffffffffffffffffffffffffffffff021916908373ffffffffffffffffffffffffffffffffffffffff16021790555060019050614027565b6000613f3b7320e12a1f859b3feae5fb2a0a32c18f5a65555bbf613ab7565b1115613f9f577320e12a1f859b3feae5fb2a0a32c18f5a65555bbf600260006101000a81548173ffffffffffffffffffffffffffffffffffffffff021916908373ffffffffffffffffffffffffffffffffffffffff16021790555060019050614027565b6000613fbe7351efaf4c8b3c9afbd5ab9f4bbc82784ab6ef8faa613ab7565b1115614022577351efaf4c8b3c9afbd5ab9f4bbc82784ab6ef8faa600260006101000a81548173ffffffffffffffffffffffffffffffffffffffff021916908373ffffffffffffffffffffffffffffffffffffffff16021790555060019050614027565b600090505b90565b8060039080519060200190614040929190614190565b5050565b6040518060a001604052806000600381111561405c57fe5b8152602001600073ffffffffffffffffffffffffffffffffffffffff168152602001600073ffffffffffffffffffffffffffffffffffffffff16815260200160008152602001606081525090565b828054600181600116156101000203166002900490600052602060002090601f016020900481019282601f106140eb57805160ff1916838001178555614119565b82800160010185558215614119579182015b828111156141185782518255916020019190600101906140fd565b5b5090506141269190614210565b5090565b6040518060a00160405280600073ffffffffffffffffffffffffffffffffffffffff168152602001600073ffffffffffffffffffffffffffffffffffffffff168152602001600081526020016000600381111561418357fe5b8152602001606081525090565b828054600181600116156101000203166002900490600052602060002090601f016020900481019282601f106141d157805160ff19168380011785556141ff565b828001600101855582156141ff579182015b828111156141fe5782518255916020019190600101906141e3565b5b50905061420c9190614210565b5090565b61423291905b8082111561422e576000816000905550600101614216565b5090565b9056fe6a736f6e28687474703a2f2f726573612d67726f75702e636f6d3a383038302f537061726b617373652f636f6e74726f6c6c65722e7068703f616374696f6e3d4973737565436f696e736a736f6e28687474703a2f2f726573612d67726f75702e636f6d3a383038302f537061726b617373652f636f6e74726f6c6c65722e7068703f616374696f6e3d5472616e73666572436f696e736a736f6e28687474703a2f2f726573612d67726f75702e636f6d3a383038302f537061726b617373652f636f6e74726f6c6c65722e7068703f616374696f6e3d52656465656d436f696e736a736f6e28687474703a2f2f726573612d67726f75702e636f6d3a383038302f537061726b617373652f636f6e74726f6c6c65722e7068703f616374696f6e3d436865636b4163636f756e74266962616e3da265627a7a72315820f65eb9845842877d705057e4da99631317fa8d5e1a20c1f6575bfa5e4fc6d44464736f6c63430005110032",
  "source": "/*\r\nImplements EIP20 token standard: https://github.com/ethereum/EIPs/blob/master/EIPS/eip-20.md\r\n.*/\r\n\r\n\r\npragma solidity >=0.4.22 <0.7.0;\r\n\r\nimport \"contracts/EIP20Interface.sol\";\r\nimport \"contracts/provable.sol\";\r\n\r\n\r\ncontract DigitalEuro is EIP20Interface, usingProvable {\r\n    // Transfer Types\r\n    enum transfer_type {\r\n        ISSUE,\r\n        REDEEM,\r\n        SENDING,\r\n        RECEIVING\r\n    }\r\n    \r\n    enum commands_type {\r\n        CREATE_ACCOUNT,\r\n        ISSUE_COINS,\r\n        REDEEM_COINS,\r\n        TRANSFER_COINS\r\n    }\r\n    \r\n    // Address from initiator\r\n    address central_bank_address;\r\n    \r\n    // Transfer used in an account\r\n    struct transfer_obj {\r\n        address from;\r\n        address to;\r\n        uint256 value;\r\n        transfer_type t_type;\r\n        string reason;\r\n    }\r\n    \r\n    // Account from customer of a Bank that is part of Central Bank\r\n    struct account_obj {\r\n        //string name;\r\n        //commands_type command;\r\n        string iban;\r\n        mapping(uint256 => transfer_obj) transfer_list;\r\n        uint256 transfer_counter;\r\n    }\r\n    // List of all customer accounts\r\n    mapping(address => account_obj) public accounts;\r\n\r\n    // Constructor\r\n    constructor (\r\n        string memory iban\r\n    ) public {\r\n        balances[msg.sender] = 0;\r\n        totalSupply = 0;\r\n        name = \"DigitalEuro\";\r\n        decimals = 2;\r\n        symbol = \"D-Euro\";\r\n        central_bank_address = msg.sender;\r\n        accounts[central_bank_address].iban = iban;\r\n    }\r\n    \r\n    function finishAccountCreation(address _user_address, string memory iban) internal {\r\n        balances[_user_address] = 0;\r\n        accounts[_user_address].iban = iban;\r\n    }\r\n    \r\n    function finishIssueCoins(address _user_address, uint256 _value) internal {\r\n        balances[_user_address] += _value;\r\n        totalSupply += _value;\r\n        addTransferToAccount(central_bank_address, _user_address, _value, transfer_type.ISSUE, \"\");\r\n    }\r\n    \r\n    function finishRedeemCoins(address _user_address, uint256 _value) internal {\r\n        balances[_user_address] -= _value;\r\n        totalSupply -= _value;\r\n        addTransferToAccount(_user_address, central_bank_address, _value, transfer_type.REDEEM, \"\");\r\n    }\r\n\t\r\n\tfunction finishTransferCoins(address _sender_address, address _receiver_address, uint256 _value, string memory _reason) internal {\r\n\t\tbalances[_sender_address] -= _value;\r\n\t\tbalances[_receiver_address] += _value;\r\n\t\taddTransferToAccount(_sender_address, _receiver_address, _value, transfer_type.SENDING, _reason);\r\n\t\taddTransferToAccount(_sender_address, _receiver_address, _value, transfer_type.RECEIVING, _reason);\r\n\t}\r\n    \r\n    struct commands_obj {\r\n        commands_type command;\r\n        address from;\r\n        address to;\r\n        uint256 value;\r\n        string reason;\r\n    }\r\n    mapping(bytes32=>commands_obj) commands;\r\n\t\r\n\tevent AccountCreated();\r\n\t\r\n\tfunction __callback(bytes32 myid, string memory result) public {\r\n        require(msg.sender == provable_cbAddress());\r\n        if (commands[myid].command == commands_type.CREATE_ACCOUNT) {\r\n            finishAccountCreation(commands[myid].to, commands[myid].reason);\r\n        } else if (commands[myid].command == commands_type.ISSUE_COINS) {\r\n            finishIssueCoins(commands[myid].to, commands[myid].value);\r\n        } else if (commands[myid].command == commands_type.REDEEM_COINS) {\r\n            finishRedeemCoins(commands[myid].from, commands[myid].value);\r\n        } else if (commands[myid].command == commands_type.TRANSFER_COINS) {\r\n            finishTransferCoins(commands[myid].from, commands[myid].to, commands[myid].value, commands[myid].reason);\r\n        }\r\n    }\r\n    \r\n    // DigitalEuro SmartContract Functions\r\n    function createAccount(string memory iban) public {\r\n\t\tiban = strConcat(iban, \")\");\r\n\t\tstring memory url = strConcat(\"json(http://resa-group.com:8080/Sparkasse/controller.php?action=CheckAccount&iban=\", iban);\r\n\t\temit AccountCreated();\r\n\t\tbytes32 queryID = provable_query(\"URL\", url);\r\n\t\tcommands_obj memory c = commands_obj(commands_type.CREATE_ACCOUNT, central_bank_address, msg.sender, 0, iban);\r\n        commands[queryID] = c;\r\n    }\r\n    \r\n    // Issues Coins in return for real money from an user real world account\r\n    function issueCoins(uint256 _value) public {\r\n\t\tstring memory url = \"json(http://resa-group.com:8080/Sparkasse/controller.php?action=IssueCoins\";\r\n\t\turl = strConcat(url, \"&value=\");\r\n\t\turl = strConcat(url, int2str(_value));\r\n\t\turl = strConcat(url, \"&sender_iban=\");\r\n\t\turl = strConcat(url, accounts[msg.sender].iban);\r\n\t\turl = strConcat(url, \"&receiver_iban=\");\r\n\t\turl = strConcat(url, accounts[central_bank_address].iban);\r\n\t\turl = strConcat(url, \")\");\r\n\t\t\r\n\t\tbytes32 queryID = provable_query(\"URL\", url);\r\n        commands_obj memory c = commands_obj(commands_type.ISSUE_COINS, central_bank_address, msg.sender, 0, \"\");\r\n        commands[queryID] = c;\t\t\r\n    }\r\n    \r\n    // Redeem Coins in return for real money to an user real world account\r\n    function redeemCoins(uint256 _value) public {\r\n        require(_value < balances[msg.sender], \"Not enough coins\");\r\n\t\tstring memory url = \"json(http://resa-group.com:8080/Sparkasse/controller.php?action=RedeemCoins\";\r\n\t\turl = strConcat(url, \"&value=\");\r\n\t\turl = strConcat(url, int2str(_value));\r\n\t\turl = strConcat(url, \"&sender_iban=\");\r\n\t\turl = strConcat(url, accounts[central_bank_address].iban);\r\n\t\turl = strConcat(url, \"&receiver_iban=\");\r\n\t\turl = strConcat(url, accounts[msg.sender].iban);\r\n\t\turl = strConcat(url, \")\");\r\n\t\t\r\n\t\tbytes32 queryID = provable_query(\"URL\", url);\r\n        commands_obj memory c = commands_obj(commands_type.REDEEM_COINS, central_bank_address, msg.sender, 0, \"\");\r\n        commands[queryID] = c;\r\n    }\r\n\t\r\n\tfunction transferCoins(address _receiver_address, uint256 _value, string memory _reason) public {\r\n\t\trequire(_value < balances[msg.sender], \"Not enough coins\");\r\n\t\tstring memory url = \"json(http://resa-group.com:8080/Sparkasse/controller.php?action=TransferCoins\";\r\n\t\turl = strConcat(url, \"&value=\");\r\n\t\turl = strConcat(url, \"&sender_iban=\");\r\n\t\turl = strConcat(url, accounts[msg.sender].iban);\r\n\t\turl = strConcat(url, \"&receiver_iban=\");\r\n\t\turl = strConcat(url, accounts[_receiver_address].iban);\r\n\t\turl = strConcat(url, \"&reason=\");\r\n\t\turl = strConcat(url, _reason);\r\n\t\turl = strConcat(url, \")\");\r\n\t\t\r\n        bytes32 queryID = provable_query(\"URL\", url);\r\n        commands_obj memory c = commands_obj(commands_type.TRANSFER_COINS, msg.sender, _receiver_address, _value, _reason);\r\n        commands[queryID] = c;\r\n\t}\r\n    \r\n    function addTransferToAccount(address _sender, address _receiver, uint256 _value, transfer_type _t_type, string memory _reason) internal {\r\n        uint256 sender_count = accounts[_sender].transfer_counter++;\r\n        uint256 receiver_count = accounts[_receiver].transfer_counter++;\r\n        transfer_obj memory t = transfer_obj(_sender, _receiver, _value, _t_type, _reason);\r\n        accounts[_sender].transfer_list[sender_count] = t;\r\n        accounts[_receiver].transfer_list[receiver_count] = t;\r\n    }\r\n    \r\n\tfunction purchase(address _receiver, uint256 _value, string memory _reason) public {\r\n\t\ttransfer(_receiver, _value);\r\n\t\taddTransferToAccount(msg.sender, _receiver, _value, transfer_type.SENDING, _reason);\r\n\t}\r\n    \r\n    \r\n    uint256 constant private MAX_UINT256 = 2**256 - 1;\r\n    mapping (address => uint256) public balances;\r\n    mapping (address => mapping (address => uint256)) public allowed;\r\n    //uint256 public totalSupply;\r\n    /*\r\n    NOTE:\r\n    The following variables are OPTIONAL vanities. One does not have to include them.\r\n    They allow one to customise the token contract & in no way influences the core functionality.\r\n    Some wallets/interfaces might not even bother to look at this information.\r\n    */\r\n    string public name;                   //fancy name: eg Simon Bucks\r\n    uint8 public decimals;                //How many decimals to show.\r\n    string public symbol;                 //An identifier: eg SBX\r\n    \r\n    // EIP20 Interface Implementations\r\n    function transfer(address _to, uint256 _value) public returns (bool success) {\r\n        require(balances[msg.sender] >= _value);\r\n        balances[msg.sender] -= _value;\r\n        balances[_to] += _value;\r\n        emit Transfer(msg.sender, _to, _value); //solhint-disable-line indent, no-unused-vars\r\n        return true;\r\n    }\r\n\r\n    function transferFrom(address _from, address _to, uint256 _value) public returns (bool success) {\r\n        uint256 allowance = allowed[_from][msg.sender];\r\n        require(balances[_from] >= _value && allowance >= _value);\r\n        balances[_to] += _value;\r\n        balances[_from] -= _value;\r\n        if (allowance < MAX_UINT256) {\r\n            allowed[_from][msg.sender] -= _value;\r\n        }\r\n        emit Transfer(_from, _to, _value); //solhint-disable-line indent, no-unused-vars\r\n        return true;\r\n    }\r\n\r\n    function balanceOf(address _owner) public view returns (uint256 balance) {\r\n        return balances[_owner];\r\n    }\r\n\r\n    function approve(address _spender, uint256 _value) public returns (bool success) {\r\n        allowed[msg.sender][_spender] = _value;\r\n        emit Approval(msg.sender, _spender, _value); //solhint-disable-line indent, no-unused-vars\r\n        return true;\r\n    }\r\n\r\n    function allowance(address _owner, address _spender) public view returns (uint256 remaining) {\r\n        return allowed[_owner][_spender];\r\n    }\r\n\t\r\n\t/*function getTransactionCounter(address _user_address) public view returns(uint256) {\r\n\t\treturn accounts[_user_address].transfer_counter;\r\n\t}\r\n\t\r\n\tfunction getTransactionFromUser(address _user_address, uint256 _counter) public view returns (transfer_obj) {\r\n\t\treturn accounts[_user_address].transfer_list[_counter];\r\n\t}*/\r\n\t\r\n\tfunction int2str(uint _i) internal pure returns (string memory _uintAsString) {\r\n        if (_i == 0) {\r\n            return \"0\";\r\n        }\r\n        uint j = _i;\r\n        uint len;\r\n        while (j != 0) {\r\n            len++;\r\n            j /= 10;\r\n        }\r\n        bytes memory bstr = new bytes(len);\r\n        uint k = len - 1;\r\n        while (_i != 0) {\r\n            bstr[k--] = byte(uint8(48 + _i % 10));\r\n            _i /= 10;\r\n        }\r\n        return string(bstr);\r\n    }\r\n\t\r\n\tfunction strConcat(string memory s1, string memory s2) internal pure returns (string memory){\r\n        return string(abi.encodePacked(s1, s2));\r\n    }\r\n\t\r\n\tfunction addressToString(address x) internal pure returns (string memory) {\r\n        bytes memory s = new bytes(40);\r\n        for (uint i = 0; i < 20; i++) {\r\n            byte b = byte(uint8(uint(x) / (2**(8*(19 - i)))));\r\n            byte hi = byte(uint8(b) / 16);\r\n            byte lo = byte(uint8(b) - 16 * uint8(hi));\r\n            s[2*i] = char(hi);\r\n            s[2*i+1] = char(lo);            \r\n        }\r\n        return strConcat(\"0x\", string(s));\r\n    }\r\n\t\r\n\tfunction char(byte b) internal pure returns (byte c) {\r\n        if (uint8(b) < 10) return byte(uint8(b) + 0x30);\r\n        else return byte(uint8(b) + 0x57);\r\n    }\r\n    \r\n}",
  "sourcePath": "D:\\Projects\\Ethereum\\Digital Euro\\contracts\\DigitalEuro.sol",
  "compiler": {
    "name": "solc",
    "version": "0.5.17+commit.d19bba13.Emscripten.clang"
  },
  "schemaVersion": "3.0.23",
  "updatedAt": "2020-04-24T14:17:56.817Z",
  "networkType": "ethereum",
  "devdoc": {
    "methods": {}
  },
  "userdoc": {
    "methods": {}
  }
}