{
  "contractName": "DigitalEuro_WP",
  "abi": [
    {
      "anonymous": false,
      "inputs": [],
      "name": "AccountCreated",
      "type": "event"
    },
    {
      "anonymous": false,
      "inputs": [
        {
          "indexed": true,
          "internalType": "address",
          "name": "_owner",
          "type": "address"
        },
        {
          "indexed": true,
          "internalType": "address",
          "name": "_spender",
          "type": "address"
        },
        {
          "indexed": false,
          "internalType": "uint256",
          "name": "_value",
          "type": "uint256"
        }
      ],
      "name": "Approval",
      "type": "event"
    },
    {
      "anonymous": false,
      "inputs": [
        {
          "indexed": true,
          "internalType": "address",
          "name": "_from",
          "type": "address"
        },
        {
          "indexed": true,
          "internalType": "address",
          "name": "_to",
          "type": "address"
        },
        {
          "indexed": false,
          "internalType": "uint256",
          "name": "_value",
          "type": "uint256"
        }
      ],
      "name": "Transfer",
      "type": "event"
    },
    {
      "constant": true,
      "inputs": [
        {
          "internalType": "address",
          "name": "",
          "type": "address"
        }
      ],
      "name": "accounts",
      "outputs": [
        {
          "internalType": "string",
          "name": "iban",
          "type": "string"
        },
        {
          "internalType": "uint256",
          "name": "transfer_counter",
          "type": "uint256"
        }
      ],
      "payable": false,
      "stateMutability": "view",
      "type": "function"
    },
    {
      "constant": true,
      "inputs": [
        {
          "internalType": "address",
          "name": "",
          "type": "address"
        },
        {
          "internalType": "address",
          "name": "",
          "type": "address"
        }
      ],
      "name": "allowed",
      "outputs": [
        {
          "internalType": "uint256",
          "name": "",
          "type": "uint256"
        }
      ],
      "payable": false,
      "stateMutability": "view",
      "type": "function"
    },
    {
      "constant": true,
      "inputs": [
        {
          "internalType": "address",
          "name": "",
          "type": "address"
        }
      ],
      "name": "balances",
      "outputs": [
        {
          "internalType": "uint256",
          "name": "",
          "type": "uint256"
        }
      ],
      "payable": false,
      "stateMutability": "view",
      "type": "function"
    },
    {
      "constant": true,
      "inputs": [],
      "name": "decimals",
      "outputs": [
        {
          "internalType": "uint8",
          "name": "",
          "type": "uint8"
        }
      ],
      "payable": false,
      "stateMutability": "view",
      "type": "function"
    },
    {
      "constant": true,
      "inputs": [],
      "name": "name",
      "outputs": [
        {
          "internalType": "string",
          "name": "",
          "type": "string"
        }
      ],
      "payable": false,
      "stateMutability": "view",
      "type": "function"
    },
    {
      "constant": true,
      "inputs": [],
      "name": "symbol",
      "outputs": [
        {
          "internalType": "string",
          "name": "",
          "type": "string"
        }
      ],
      "payable": false,
      "stateMutability": "view",
      "type": "function"
    },
    {
      "constant": true,
      "inputs": [],
      "name": "totalSupply",
      "outputs": [
        {
          "internalType": "uint256",
          "name": "",
          "type": "uint256"
        }
      ],
      "payable": false,
      "stateMutability": "view",
      "type": "function"
    },
    {
      "constant": false,
      "inputs": [
        {
          "internalType": "string",
          "name": "iban",
          "type": "string"
        }
      ],
      "name": "DigitalEuro",
      "outputs": [],
      "payable": false,
      "stateMutability": "nonpayable",
      "type": "function"
    },
    {
      "constant": false,
      "inputs": [
        {
          "internalType": "string",
          "name": "iban",
          "type": "string"
        }
      ],
      "name": "createAccount",
      "outputs": [
        {
          "internalType": "bool",
          "name": "",
          "type": "bool"
        }
      ],
      "payable": false,
      "stateMutability": "nonpayable",
      "type": "function"
    },
    {
      "constant": false,
      "inputs": [
        {
          "internalType": "uint256",
          "name": "_value",
          "type": "uint256"
        }
      ],
      "name": "issueCoins",
      "outputs": [],
      "payable": false,
      "stateMutability": "nonpayable",
      "type": "function"
    },
    {
      "constant": false,
      "inputs": [
        {
          "internalType": "uint256",
          "name": "_value",
          "type": "uint256"
        }
      ],
      "name": "redeemCoins",
      "outputs": [],
      "payable": false,
      "stateMutability": "nonpayable",
      "type": "function"
    },
    {
      "constant": false,
      "inputs": [
        {
          "internalType": "address",
          "name": "_receiver",
          "type": "address"
        },
        {
          "internalType": "uint256",
          "name": "_value",
          "type": "uint256"
        },
        {
          "internalType": "string",
          "name": "_reason",
          "type": "string"
        }
      ],
      "name": "purchase",
      "outputs": [],
      "payable": false,
      "stateMutability": "nonpayable",
      "type": "function"
    },
    {
      "constant": false,
      "inputs": [
        {
          "internalType": "address",
          "name": "_to",
          "type": "address"
        },
        {
          "internalType": "uint256",
          "name": "_value",
          "type": "uint256"
        }
      ],
      "name": "transfer",
      "outputs": [
        {
          "internalType": "bool",
          "name": "success",
          "type": "bool"
        }
      ],
      "payable": false,
      "stateMutability": "nonpayable",
      "type": "function"
    },
    {
      "constant": false,
      "inputs": [
        {
          "internalType": "address",
          "name": "_from",
          "type": "address"
        },
        {
          "internalType": "address",
          "name": "_to",
          "type": "address"
        },
        {
          "internalType": "uint256",
          "name": "_value",
          "type": "uint256"
        }
      ],
      "name": "transferFrom",
      "outputs": [
        {
          "internalType": "bool",
          "name": "success",
          "type": "bool"
        }
      ],
      "payable": false,
      "stateMutability": "nonpayable",
      "type": "function"
    },
    {
      "constant": true,
      "inputs": [
        {
          "internalType": "address",
          "name": "_owner",
          "type": "address"
        }
      ],
      "name": "balanceOf",
      "outputs": [
        {
          "internalType": "uint256",
          "name": "balance",
          "type": "uint256"
        }
      ],
      "payable": false,
      "stateMutability": "view",
      "type": "function"
    },
    {
      "constant": false,
      "inputs": [
        {
          "internalType": "address",
          "name": "_spender",
          "type": "address"
        },
        {
          "internalType": "uint256",
          "name": "_value",
          "type": "uint256"
        }
      ],
      "name": "approve",
      "outputs": [
        {
          "internalType": "bool",
          "name": "success",
          "type": "bool"
        }
      ],
      "payable": false,
      "stateMutability": "nonpayable",
      "type": "function"
    },
    {
      "constant": true,
      "inputs": [
        {
          "internalType": "address",
          "name": "_owner",
          "type": "address"
        },
        {
          "internalType": "address",
          "name": "_spender",
          "type": "address"
        }
      ],
      "name": "allowance",
      "outputs": [
        {
          "internalType": "uint256",
          "name": "remaining",
          "type": "uint256"
        }
      ],
      "payable": false,
      "stateMutability": "view",
      "type": "function"
    }
  ],
  "bytecode": "0x608060405234801561001057600080fd5b50611abf806100206000396000f3fe608060405234801561001057600080fd5b506004361061010b5760003560e01c806339eb283c116100a257806370a082311161007157806370a08231146106f657806375e57a071461074e57806395d89b411461077c578063a9059cbb146107ff578063dd62ed3e146108655761010b565b806339eb283c146104d15780635460bcd4146104ff5780635c658165146105ba5780635e5c06e2146106325761010b565b806323b872dd116100de57806323b872dd146102fc57806327e235e314610382578063298daf5b146103da578063313ce567146104ad5761010b565b8063049a58b51461011057806306fdde03146101f5578063095ea7b31461027857806318160ddd146102de575b600080fd5b6101f36004803603606081101561012657600080fd5b81019080803573ffffffffffffffffffffffffffffffffffffffff169060200190929190803590602001909291908035906020019064010000000081111561016d57600080fd5b82018360208201111561017f57600080fd5b803590602001918460018302840111640100000000831117156101a157600080fd5b91908080601f016020809104026020016040519081016040528093929190818152602001838380828437600081840152601f19601f8201169050808301925050505050505091929192905050506108dd565b005b6101fd6108fb565b6040518080602001828103825283818151815260200191508051906020019080838360005b8381101561023d578082015181840152602081019050610222565b50505050905090810190601f16801561026a5780820380516001836020036101000a031916815260200191505b509250505060405180910390f35b6102c46004803603604081101561028e57600080fd5b81019080803573ffffffffffffffffffffffffffffffffffffffff16906020019092919080359060200190929190505050610999565b604051808215151515815260200191505060405180910390f35b6102e6610a8b565b6040518082815260200191505060405180910390f35b6103686004803603606081101561031257600080fd5b81019080803573ffffffffffffffffffffffffffffffffffffffff169060200190929190803573ffffffffffffffffffffffffffffffffffffffff16906020019092919080359060200190929190505050610a91565b604051808215151515815260200191505060405180910390f35b6103c46004803603602081101561039857600080fd5b81019080803573ffffffffffffffffffffffffffffffffffffffff169060200190929190505050610d29565b6040518082815260200191505060405180910390f35b610493600480360360208110156103f057600080fd5b810190808035906020019064010000000081111561040d57600080fd5b82018360208201111561041f57600080fd5b8035906020019184600183028401116401000000008311171561044157600080fd5b91908080601f016020809104026020016040519081016040528093929190818152602001838380828437600081840152601f19601f820116905080830192505050505050509192919290505050610d41565b604051808215151515815260200191505060405180910390f35b6104b5610e13565b604051808260ff1660ff16815260200191505060405180910390f35b6104fd600480360360208110156104e757600080fd5b8101908080359060200190929190505050610e26565b005b6105b86004803603602081101561051557600080fd5b810190808035906020019064010000000081111561053257600080fd5b82018360208201111561054457600080fd5b8035906020019184600183028401116401000000008311171561056657600080fd5b91908080601f016020809104026020016040519081016040528093929190818152602001838380828437600081840152601f19601f820116905080830192505050505050509192919290505050610f78565b005b61061c600480360360408110156105d057600080fd5b81019080803573ffffffffffffffffffffffffffffffffffffffff169060200190929190803573ffffffffffffffffffffffffffffffffffffffff169060200190929190505050611135565b6040518082815260200191505060405180910390f35b6106746004803603602081101561064857600080fd5b81019080803573ffffffffffffffffffffffffffffffffffffffff16906020019092919050505061115a565b6040518080602001838152602001828103825284818151815260200191508051906020019080838360005b838110156106ba57808201518184015260208101905061069f565b50505050905090810190601f1680156106e75780820380516001836020036101000a031916815260200191505b50935050505060405180910390f35b6107386004803603602081101561070c57600080fd5b81019080803573ffffffffffffffffffffffffffffffffffffffff169060200190929190505050611216565b6040518082815260200191505060405180910390f35b61077a6004803603602081101561076457600080fd5b810190808035906020019092919050505061125f565b005b6107846112fd565b6040518080602001828103825283818151815260200191508051906020019080838360005b838110156107c45780820151818401526020810190506107a9565b50505050905090810190601f1680156107f15780820380516001836020036101000a031916815260200191505b509250505060405180910390f35b61084b6004803603604081101561081557600080fd5b81019080803573ffffffffffffffffffffffffffffffffffffffff1690602001909291908035906020019092919050505061139b565b604051808215151515815260200191505060405180910390f35b6108c76004803603604081101561087b57600080fd5b81019080803573ffffffffffffffffffffffffffffffffffffffff169060200190929190803573ffffffffffffffffffffffffffffffffffffffff1690602001909291905050506114f2565b6040518082815260200191505060405180910390f35b6108e7838361139b565b506108f6338484600285611579565b505050565b60058054600181600116156101000203166002900480601f0160208091040260200160405190810160405280929190818152602001828054600181600116156101000203166002900480156109915780601f1061096657610100808354040283529160200191610991565b820191906000526020600020905b81548152906001019060200180831161097457829003601f168201915b505050505081565b600081600460003373ffffffffffffffffffffffffffffffffffffffff1673ffffffffffffffffffffffffffffffffffffffff16815260200190815260200160002060008573ffffffffffffffffffffffffffffffffffffffff1673ffffffffffffffffffffffffffffffffffffffff168152602001908152602001600020819055508273ffffffffffffffffffffffffffffffffffffffff163373ffffffffffffffffffffffffffffffffffffffff167f8c5be1e5ebec7d5bd14f71427d1e84f3dd0314c0f7b2291e5b200ac8c7c3b925846040518082815260200191505060405180910390a36001905092915050565b60005481565b600080600460008673ffffffffffffffffffffffffffffffffffffffff1673ffffffffffffffffffffffffffffffffffffffff16815260200190815260200160002060003373ffffffffffffffffffffffffffffffffffffffff1673ffffffffffffffffffffffffffffffffffffffff16815260200190815260200160002054905082600360008773ffffffffffffffffffffffffffffffffffffffff1673ffffffffffffffffffffffffffffffffffffffff1681526020019081526020016000205410158015610b625750828110155b610b6b57600080fd5b82600360008673ffffffffffffffffffffffffffffffffffffffff1673ffffffffffffffffffffffffffffffffffffffff1681526020019081526020016000206000828254019250508190555082600360008773ffffffffffffffffffffffffffffffffffffffff1673ffffffffffffffffffffffffffffffffffffffff168152602001908152602001600020600082825403925050819055507fffffffffffffffffffffffffffffffffffffffffffffffffffffffffffffffff811015610cb85782600460008773ffffffffffffffffffffffffffffffffffffffff1673ffffffffffffffffffffffffffffffffffffffff16815260200190815260200160002060003373ffffffffffffffffffffffffffffffffffffffff1673ffffffffffffffffffffffffffffffffffffffff168152602001908152602001600020600082825403925050819055505b8373ffffffffffffffffffffffffffffffffffffffff168573ffffffffffffffffffffffffffffffffffffffff167fddf252ad1be2c89b69c2b068fc378daa952ba7f163c4a11628f55a4df523b3ef856040518082815260200191505060405180910390a360019150509392505050565b60036020528060005260406000206000915090505481565b600080600360003373ffffffffffffffffffffffffffffffffffffffff1673ffffffffffffffffffffffffffffffffffffffff1681526020019081526020016000208190555081600260003373ffffffffffffffffffffffffffffffffffffffff1673ffffffffffffffffffffffffffffffffffffffff1681526020019081526020016000206000019080519060200190610ddd9291906118ff565b507fc948187b260bbc72ea272c3455658982a957190abd439921077c5756e0cb82a160405160405180910390a160019050919050565b600660009054906101000a900460ff1681565b600360003373ffffffffffffffffffffffffffffffffffffffff1673ffffffffffffffffffffffffffffffffffffffff168152602001908152602001600020548110610eda576040517f08c379a00000000000000000000000000000000000000000000000000000000081526004018080602001828103825260108152602001807f4e6f7420656e6f75676820636f696e730000000000000000000000000000000081525060200191505060405180910390fd5b80600360003373ffffffffffffffffffffffffffffffffffffffff1673ffffffffffffffffffffffffffffffffffffffff16815260200190815260200160002060008282540392505081905550806000808282540392505081905550610f7533600160009054906101000a900473ffffffffffffffffffffffffffffffffffffffff1683600160405180602001604052806000815250611579565b50565b6000600360003373ffffffffffffffffffffffffffffffffffffffff1673ffffffffffffffffffffffffffffffffffffffff16815260200190815260200160002081905550600080819055506040518060400160405280600b81526020017f4469676974616c4575726f0000000000000000000000000000000000000000008152506005908051906020019061100f9291906118ff565b506002600660006101000a81548160ff021916908360ff1602179055506040518060400160405280600681526020017f442d4575726f0000000000000000000000000000000000000000000000000000815250600790805190602001906110779291906118ff565b5033600160006101000a81548173ffffffffffffffffffffffffffffffffffffffff021916908373ffffffffffffffffffffffffffffffffffffffff1602179055508060026000600160009054906101000a900473ffffffffffffffffffffffffffffffffffffffff1673ffffffffffffffffffffffffffffffffffffffff1673ffffffffffffffffffffffffffffffffffffffff16815260200190815260200160002060000190805190602001906111319291906118ff565b5050565b6004602052816000526040600020602052806000526040600020600091509150505481565b6002602052806000526040600020600091509050806000018054600181600116156101000203166002900480601f0160208091040260200160405190810160405280929190818152602001828054600181600116156101000203166002900480156112065780601f106111db57610100808354040283529160200191611206565b820191906000526020600020905b8154815290600101906020018083116111e957829003601f168201915b5050505050908060020154905082565b6000600360008373ffffffffffffffffffffffffffffffffffffffff1673ffffffffffffffffffffffffffffffffffffffff168152602001908152602001600020549050919050565b80600360003373ffffffffffffffffffffffffffffffffffffffff1673ffffffffffffffffffffffffffffffffffffffff168152602001908152602001600020600082825401925050819055508060008082825401925050819055506112fa600160009054906101000a900473ffffffffffffffffffffffffffffffffffffffff163383600060405180602001604052806000815250611579565b50565b60078054600181600116156101000203166002900480601f0160208091040260200160405190810160405280929190818152602001828054600181600116156101000203166002900480156113935780601f1061136857610100808354040283529160200191611393565b820191906000526020600020905b81548152906001019060200180831161137657829003601f168201915b505050505081565b600081600360003373ffffffffffffffffffffffffffffffffffffffff1673ffffffffffffffffffffffffffffffffffffffff1681526020019081526020016000205410156113e957600080fd5b81600360003373ffffffffffffffffffffffffffffffffffffffff1673ffffffffffffffffffffffffffffffffffffffff1681526020019081526020016000206000828254039250508190555081600360008573ffffffffffffffffffffffffffffffffffffffff1673ffffffffffffffffffffffffffffffffffffffff168152602001908152602001600020600082825401925050819055508273ffffffffffffffffffffffffffffffffffffffff163373ffffffffffffffffffffffffffffffffffffffff167fddf252ad1be2c89b69c2b068fc378daa952ba7f163c4a11628f55a4df523b3ef846040518082815260200191505060405180910390a36001905092915050565b6000600460008473ffffffffffffffffffffffffffffffffffffffff1673ffffffffffffffffffffffffffffffffffffffff16815260200190815260200160002060008373ffffffffffffffffffffffffffffffffffffffff1673ffffffffffffffffffffffffffffffffffffffff16815260200190815260200160002054905092915050565b6000600260008773ffffffffffffffffffffffffffffffffffffffff1673ffffffffffffffffffffffffffffffffffffffff16815260200190815260200160002060020160008154809291906001019190505590506000600260008773ffffffffffffffffffffffffffffffffffffffff1673ffffffffffffffffffffffffffffffffffffffff168152602001908152602001600020600201600081548092919060010191905055905061162b61197f565b6040518060a001604052808973ffffffffffffffffffffffffffffffffffffffff1681526020018873ffffffffffffffffffffffffffffffffffffffff16815260200187815260200186600381111561168057fe5b815260200185815250905080600260008a73ffffffffffffffffffffffffffffffffffffffff1673ffffffffffffffffffffffffffffffffffffffff168152602001908152602001600020600101600085815260200190815260200160002060008201518160000160006101000a81548173ffffffffffffffffffffffffffffffffffffffff021916908373ffffffffffffffffffffffffffffffffffffffff16021790555060208201518160010160006101000a81548173ffffffffffffffffffffffffffffffffffffffff021916908373ffffffffffffffffffffffffffffffffffffffff1602179055506040820151816002015560608201518160030160006101000a81548160ff0219169083600381111561179b57fe5b021790555060808201518160040190805190602001906117bc9291906119e5565b5090505080600260008973ffffffffffffffffffffffffffffffffffffffff1673ffffffffffffffffffffffffffffffffffffffff168152602001908152602001600020600101600084815260200190815260200160002060008201518160000160006101000a81548173ffffffffffffffffffffffffffffffffffffffff021916908373ffffffffffffffffffffffffffffffffffffffff16021790555060208201518160010160006101000a81548173ffffffffffffffffffffffffffffffffffffffff021916908373ffffffffffffffffffffffffffffffffffffffff1602179055506040820151816002015560608201518160030160006101000a81548160ff021916908360038111156118d057fe5b021790555060808201518160040190805190602001906118f19291906119e5565b509050505050505050505050565b828054600181600116156101000203166002900490600052602060002090601f016020900481019282601f1061194057805160ff191683800117855561196e565b8280016001018555821561196e579182015b8281111561196d578251825591602001919060010190611952565b5b50905061197b9190611a65565b5090565b6040518060a00160405280600073ffffffffffffffffffffffffffffffffffffffff168152602001600073ffffffffffffffffffffffffffffffffffffffff16815260200160008152602001600060038111156119d857fe5b8152602001606081525090565b828054600181600116156101000203166002900490600052602060002090601f016020900481019282601f10611a2657805160ff1916838001178555611a54565b82800160010185558215611a54579182015b82811115611a53578251825591602001919060010190611a38565b5b509050611a619190611a65565b5090565b611a8791905b80821115611a83576000816000905550600101611a6b565b5090565b9056fea265627a7a7231582020ee2921b453c375d89af0d9e2704e22191565daedddc704827bd315bdae663f64736f6c63430005110032",
  "source": "/*\r\nImplements EIP20 token standard: https://github.com/ethereum/EIPs/blob/master/EIPS/eip-20.md\r\n.*/\r\n\r\n\r\npragma solidity >=0.4.22 <0.7.0;\r\n\r\nimport \"contracts/EIP20Interface.sol\";\r\n\r\n\r\ncontract DigitalEuro_WP is EIP20Interface {\r\n    // Transfer Types\r\n    enum transfer_type {\r\n        ISSUE,\r\n        REDEEM,\r\n        SENDING,\r\n        RECEIVING\r\n    }\r\n    \r\n    enum commands_type {\r\n        CREATE_ACCOUNT,\r\n        ISSUE_COINS,\r\n        REDEEM_COINS,\r\n        TRANSFER_COINS\r\n    }\r\n    \r\n    // Address from initiator\r\n    address central_bank_address;\r\n    \r\n    // Transfer used in an account\r\n    struct transfer_obj {\r\n        address from;\r\n        address to;\r\n        uint256 value;\r\n        transfer_type t_type;\r\n        string reason;\r\n    }\r\n    \r\n    // Account from customer of a Bank that is part of Central Bank\r\n    struct account_obj {\r\n        //string name;\r\n        //commands_type command;\r\n        string iban;\r\n        mapping(uint256 => transfer_obj) transfer_list;\r\n        uint256 transfer_counter;\r\n    }\r\n    // List of all customer accounts\r\n    mapping(address => account_obj) public accounts;\r\n\r\n    // Constructor\r\n    function DigitalEuro (\r\n        string memory iban\r\n    ) public {\r\n        balances[msg.sender] = 0;\r\n        totalSupply = 0;\r\n        name = \"DigitalEuro\";\r\n        decimals = 2;\r\n        symbol = \"D-Euro\";\r\n        central_bank_address = msg.sender;\r\n        accounts[central_bank_address].iban = iban;\r\n    }\r\n    \r\n    /*function finishAccountCreation(address _user_address, string iban) internal {\r\n        balances[_user_address] = 0;\r\n        accounts[_user_address].iban = iban;\r\n    }\r\n    \r\n    function finishIssueCoins(address _user_address, uint256 _value) internal {\r\n        balances[_user_address] += _value;\r\n        totalSupply += _value;\r\n        addTransferToAccount(central_bank_address, _user_address, _value, transfer_type.ISSUE, \"\");\r\n    }\r\n    \r\n    function finishRedeemCoins(address _user_address, uint256 _value) internal {\r\n        balances[_user_address] -= _value;\r\n        totalSupply -= _value;\r\n        addTransferToAccount(_user_address, central_bank_address, _value, transfer_type.ISSUE, \"\");\r\n    }\r\n    \r\n    struct commands_obj {\r\n        commands_type command;\r\n        address from;\r\n        address to;\r\n        uint256 value;\r\n        string reason;\r\n    }\r\n    mapping(bytes32=>commands_obj) commands;*/\r\n\t\r\n\tevent AccountCreated();\r\n    \r\n    // DigitalEuro SmartContract Functions\r\n    function createAccount(string memory iban) public returns (bool) {\r\n        balances[msg.sender] = 0;\r\n        accounts[msg.sender].iban = iban;\r\n\t\temit AccountCreated();\r\n\t\treturn true;\r\n    }\r\n    \r\n    // Issues Coins in return for real money from an user real world account\r\n    function issueCoins(uint256 _value) public {\r\n        // Check the real bank account (API) and the fund of real bank account\r\n        balances[msg.sender] += _value;\r\n        totalSupply += _value;\r\n        addTransferToAccount(central_bank_address, msg.sender, _value, transfer_type.ISSUE, \"\");\r\n    }\r\n    \r\n    // Redeem Coins in return for real money to an user real world account\r\n    function redeemCoins(uint256 _value) public {\r\n        require(_value < balances[msg.sender], \"Not enough coins\");\r\n        // Check the real bank account (API) and the fund of real bank account\r\n        balances[msg.sender] -= _value;\r\n        totalSupply -= _value;\r\n        addTransferToAccount(msg.sender, central_bank_address, _value, transfer_type.REDEEM, \"\");\r\n    }\r\n    \r\n    function addTransferToAccount(address _sender, address _receiver, uint256 _value, transfer_type _t_type, string memory _reason) internal {\r\n        uint256 sender_count = accounts[_sender].transfer_counter++;\r\n        uint256 receiver_count = accounts[_receiver].transfer_counter++;\r\n        transfer_obj memory t = transfer_obj(_sender, _receiver, _value, _t_type, _reason);\r\n        accounts[_sender].transfer_list[sender_count] = t;\r\n        accounts[_receiver].transfer_list[receiver_count] = t;\r\n    }\r\n    \r\n\tfunction purchase(address _receiver, uint256 _value, string memory _reason) public {\r\n\t\ttransfer(_receiver, _value);\r\n\t\taddTransferToAccount(msg.sender, _receiver, _value, transfer_type.SENDING, _reason);\r\n\t}\r\n    \r\n    \r\n    uint256 constant private MAX_UINT256 = 2**256 - 1;\r\n    mapping (address => uint256) public balances;\r\n    mapping (address => mapping (address => uint256)) public allowed;\r\n    //uint256 public totalSupply;\r\n    /*\r\n    NOTE:\r\n    The following variables are OPTIONAL vanities. One does not have to include them.\r\n    They allow one to customise the token contract & in no way influences the core functionality.\r\n    Some wallets/interfaces might not even bother to look at this information.\r\n    */\r\n    string public name;                   //fancy name: eg Simon Bucks\r\n    uint8 public decimals;                //How many decimals to show.\r\n    string public symbol;                 //An identifier: eg SBX\r\n    \r\n    // EIP20 Interface Implementations\r\n    function transfer(address _to, uint256 _value) public returns (bool success) {\r\n        require(balances[msg.sender] >= _value);\r\n        balances[msg.sender] -= _value;\r\n        balances[_to] += _value;\r\n        emit Transfer(msg.sender, _to, _value); //solhint-disable-line indent, no-unused-vars\r\n        return true;\r\n    }\r\n\r\n    function transferFrom(address _from, address _to, uint256 _value) public returns (bool success) {\r\n        uint256 allowance = allowed[_from][msg.sender];\r\n        require(balances[_from] >= _value && allowance >= _value);\r\n        balances[_to] += _value;\r\n        balances[_from] -= _value;\r\n        if (allowance < MAX_UINT256) {\r\n            allowed[_from][msg.sender] -= _value;\r\n        }\r\n        emit Transfer(_from, _to, _value); //solhint-disable-line indent, no-unused-vars\r\n        return true;\r\n    }\r\n\r\n    function balanceOf(address _owner) public view returns (uint256 balance) {\r\n        return balances[_owner];\r\n    }\r\n\r\n    function approve(address _spender, uint256 _value) public returns (bool success) {\r\n        allowed[msg.sender][_spender] = _value;\r\n        emit Approval(msg.sender, _spender, _value); //solhint-disable-line indent, no-unused-vars\r\n        return true;\r\n    }\r\n\r\n    function allowance(address _owner, address _spender) public view returns (uint256 remaining) {\r\n        return allowed[_owner][_spender];\r\n    }\r\n\t\r\n\t/*function getTransactionCounter(address _user_address) public view returns(uint256) {\r\n\t\treturn accounts[_user_address].transfer_counter;\r\n\t}\r\n\t\r\n\tfunction getTransactionFromUser(address _user_address, uint256 _counter) public view returns (transfer_obj) {\r\n\t\treturn accounts[_user_address].transfer_list[_counter];\r\n\t}*/\r\n    \r\n}",
  "sourcePath": "contracts/DigitalEuro_WP.sol",
  "compiler": {
    "name": "solc",
    "version": "0.5.17+commit.d19bba13.Emscripten.clang"
  },
  "schemaVersion": "3.0.23",
  "updatedAt": "2020-04-24T14:17:53.835Z",
  "devdoc": {
    "methods": {}
  },
  "userdoc": {
    "methods": {}
  }
}