{
  "contractName": "TradeChain",
  "abi": [
    {
      "inputs": [
        {
          "internalType": "address",
          "name": "_cb_address",
          "type": "address"
        }
      ],
      "payable": false,
      "stateMutability": "nonpayable",
      "type": "constructor"
    },
    {
      "anonymous": false,
      "inputs": [
        {
          "indexed": false,
          "internalType": "uint32",
          "name": "userID",
          "type": "uint32"
        }
      ],
      "name": "Transfer",
      "type": "event"
    },
    {
      "constant": false,
      "inputs": [
        {
          "internalType": "address",
          "name": "_receiver",
          "type": "address"
        },
        {
          "internalType": "uint256",
          "name": "_value",
          "type": "uint256"
        },
        {
          "internalType": "string",
          "name": "_reason",
          "type": "string"
        }
      ],
      "name": "purchase",
      "outputs": [],
      "payable": false,
      "stateMutability": "nonpayable",
      "type": "function"
    }
  ],
  "bytecode": "0x608060405234801561001057600080fd5b506040516103163803806103168339818101604052602081101561003357600080fd5b8101908080519060200190929190505050806000806101000a81548173ffffffffffffffffffffffffffffffffffffffff021916908373ffffffffffffffffffffffffffffffffffffffff16021790555050610282806100946000396000f3fe608060405234801561001057600080fd5b506004361061002b5760003560e01c8063049a58b514610030575b600080fd5b6101136004803603606081101561004657600080fd5b81019080803573ffffffffffffffffffffffffffffffffffffffff169060200190929190803590602001909291908035906020019064010000000081111561008d57600080fd5b82018360208201111561009f57600080fd5b803590602001918460018302840111640100000000831117156100c157600080fd5b91908080601f016020809104026020016040519081016040528093929190818152602001838380828437600081840152601f19601f820116905080830192505050505050509192919290505050610115565b005b60008060009054906101000a900473ffffffffffffffffffffffffffffffffffffffff1690508073ffffffffffffffffffffffffffffffffffffffff1663049a58b58585856040518463ffffffff1660e01b8152600401808473ffffffffffffffffffffffffffffffffffffffff1673ffffffffffffffffffffffffffffffffffffffff16815260200183815260200180602001828103825283818151815260200191508051906020019080838360005b838110156101e15780820151818401526020810190506101c6565b50505050905090810190601f16801561020e5780820380516001836020036101000a031916815260200191505b50945050505050600060405180830381600087803b15801561022f57600080fd5b505af1158015610243573d6000803e3d6000fd5b505050505050505056fea265627a7a72315820783ee47315eb33b48d7422a2ebf482081fd8d2604a9f9c66a19cc274d452620f64736f6c63430005110032",
  "source": "pragma solidity >=0.4.22 <0.7.0;\r\n\r\nimport \"contracts/DigitalEuro_WP.sol\";\r\n\r\n/**\r\n * @title TradeChain\r\n */\r\ncontract TradeChain {\r\n    address central_bank_address;\r\n    \r\n    event Transfer(uint32 userID);\r\n    \r\n    constructor (address _cb_address) public {\r\n        central_bank_address = _cb_address;\r\n    }\r\n    \r\n    function purchase(address _receiver, uint256 _value, string memory _reason) public {\r\n        DigitalEuro_WP cb = DigitalEuro_WP(address(central_bank_address));\r\n        cb.purchase(_receiver, _value, _reason);\r\n    }\r\n    \r\n    \r\n}",
  "sourcePath": "D:\\Projects\\Ethereum\\Digital Euro\\contracts\\TradeChain.sol",
  "compiler": {
    "name": "solc",
    "version": "0.5.17+commit.d19bba13.Emscripten.clang"
  },
  "schemaVersion": "3.0.23",
  "updatedAt": "2020-04-24T14:17:56.834Z",
  "networkType": "ethereum",
  "devdoc": {
    "methods": {},
    "title": "TradeChain"
  },
  "userdoc": {
    "methods": {}
  }
}